{
  "contractName": "Concatenate",
  "abi": [
    {
      "constant": false,
      "inputs": [
        {
          "name": "_s",
          "type": "string"
        },
        {
          "name": "_t",
          "type": "string"
        }
      ],
      "name": "concatWithoutImport",
      "outputs": [
        {
          "name": "",
          "type": "string"
        }
      ],
      "payable": false,
      "stateMutability": "nonpayable",
      "type": "function"
    },
    {
      "constant": false,
      "inputs": [
        {
          "name": "s",
          "type": "string"
        },
        {
          "name": "t",
          "type": "string"
        }
      ],
      "name": "concatWithImport",
      "outputs": [
        {
          "name": "",
          "type": "string"
        }
      ],
      "payable": false,
      "stateMutability": "nonpayable",
      "type": "function"
    }
  ],
  "bytecode": "0x6060604052341561000f57600080fd5b6104c58061001e6000396000f30060606040526004361061004c576000357c0100000000000000000000000000000000000000000000000000000000900463ffffffff1680631eff86461461005157806334d1460b1461016a575b600080fd5b341561005c57600080fd5b6100ef600480803590602001908201803590602001908080601f0160208091040260200160405190810160405280939291908181526020018383808284378201915050505050509190803590602001908201803590602001908080601f01602080910402602001604051908101604052809392919081815260200183838082843782019150505050505091905050610283565b6040518080602001828103825283818151815260200191508051906020019080838360005b8381101561012f578082015181840152602081019050610114565b50505050905090810190601f16801561015c5780820380516001836020036101000a031916815260200191505b509250505060405180910390f35b341561017557600080fd5b610208600480803590602001908201803590602001908080601f0160208091040260200160405190810160405280939291908181526020018383808284378201915050505050509190803590602001908201803590602001908080601f01602080910402602001604051908101604052809392919081815260200183838082843782019150505050505091905050610291565b6040518080602001828103825283818151815260200191508051906020019080838360005b8381101561024857808201518184015260208101905061022d565b50505050905090810190601f1680156102755780820380516001836020036101000a031916815260200191505b509250505060405180910390f35b61028b610471565b92915050565b610299610471565b6102a1610485565b6102a9610485565b6102b1610471565b6102b9610485565b60008088955087945084518651016040518059106102d45750595b9080825280601f01601f1916602001820160405250935083925060009150600090505b85518110156103aa57858181518110151561030e57fe5b9060200101517f010000000000000000000000000000000000000000000000000000000000000090047f010000000000000000000000000000000000000000000000000000000000000002838380600101945081518110151561036d57fe5b9060200101907effffffffffffffffffffffffffffffffffffffffffffffffffffffffffffff1916908160001a90535080806001019150506102f7565b600090505b84518110156104625784818151811015156103c657fe5b9060200101517f010000000000000000000000000000000000000000000000000000000000000090047f010000000000000000000000000000000000000000000000000000000000000002838380600101945081518110151561042557fe5b9060200101907effffffffffffffffffffffffffffffffffffffffffffffffffffffffffffff1916908160001a90535080806001019150506103af565b82965050505050505092915050565b602060405190810160405280600081525090565b6020604051908101604052806000815250905600a165627a7a723058204910244c4286f8e0f2ac67270c8dc5ec8ae98cf79dafd5890857e69e1484f1350029",
  "source": "pragma solidity 0.4.19;\n\n\ncontract Concatenate {\n    function concatWithoutImport(string _s, string _t) public returns (string) {\n        bytes memory _bs = bytes(_s);\n        bytes memory _bt = bytes(_t);\n\n        string memory ans = new string(_bs.length + _bt.length);\n        bytes memory bans = bytes(ans);\n        uint k = 0;\n        for (uint i = 0; i < _bs.length; i++) bans[k++] = _bs[i];\n        for (i = 0; i < _bt.length; i++) bans[k++] = _bt[i];\n\n        return string(bans);\n    }\n\n    /* BONUS */\n    function concatWithImport(string s, string t) public returns (string) {\n    }\n}\n",
  "sourcePath": "/Users/tzhang/Workspace/SP2018/bab/lab02/sp18-lab02/Intro to Solidity/contracts/concatenate.sol",
  "compiler": {
    "name": "solc",
    "version": "0.4.19+commit.c4cbbb05.Emscripten.clang"
  },
  "schemaVersion": "1.0.1",
  "updatedAt": "2018-02-22T00:52:50.843Z"
}