{
  "contractName": "Fibonacci",
  "abi": [
    {
      "constant": true,
      "inputs": [
        {
          "name": "n",
          "type": "uint256"
        }
      ],
      "name": "fibRecur",
      "outputs": [
        {
          "name": "",
          "type": "uint256"
        }
      ],
      "payable": false,
      "stateMutability": "pure",
      "type": "function"
    },
    {
      "constant": false,
      "inputs": [
        {
          "name": "n",
          "type": "uint256"
        }
      ],
      "name": "fibIter",
      "outputs": [
        {
          "name": "",
          "type": "uint256"
        }
      ],
      "payable": false,
      "stateMutability": "nonpayable",
      "type": "function"
    }
  ],
  "bytecode": "0x6060604052341561000f57600080fd5b6101968061001e6000396000f30060606040526004361061004c576000357c0100000000000000000000000000000000000000000000000000000000900463ffffffff168063c840476e14610051578063dfe5adc114610088575b600080fd5b341561005c57600080fd5b61007260048080359060200190919050506100bf565b6040518082815260200191505060405180910390f35b341561009357600080fd5b6100a96004808035906020019091905050610105565b6040518082815260200191505060405180910390f35b6000808214156100d25760009050610100565b60018214156100e45760019050610100565b6100f0600283036100bf565b6100fc600184036100bf565b0190505b919050565b600080600080600085141561011d5760009350610162565b600185141561012f5760019350610162565b60019250600091506002850394505b60008510151561015e57818301905082915080925060018503945061013e565b8293505b5050509190505600a165627a7a72305820cfb8fede2cf4fa735c5c1bc790e6ff01fca504fd638fa44f9ea3842171f02f110029",
  "source": "pragma solidity 0.4.19;\n\n\ncontract Fibonacci {\n    /* Carry out calculations to find the nth Fibonacci number */\n    function fibRecur(uint n) public pure returns (uint) {\n        if (n == 0) return 0;\n        else if (n == 1) return 1;\n        else return Fibonacci.fibRecur(n-1) + Fibonacci.fibRecur(n-2);\n    }\n\n    /* Carry out calculations to find the nth Fibonacci number */\n    function fibIter(uint n) public returns (uint) {\n        if (n == 0) return 0;\n        else if (n == 1) return 1;\n        uint x = 1;\n        uint y = 0;\n        n = n - 2;\n        while (n >= 0) {\n            uint tmp = x + y;\n            y = x;\n            x = tmp;\n            n = n - 1;\n        }\n        return x;\n    }\n}\n",
  "sourcePath": "/Users/tzhang/Workspace/SP2018/bab/lab02/sp18-lab02/Intro to Solidity/contracts/fibonacci.sol",
  "compiler": {
    "name": "solc",
    "version": "0.4.19+commit.c4cbbb05.Emscripten.clang"
  },
  "schemaVersion": "1.0.1",
  "updatedAt": "2018-02-22T00:52:50.841Z"
}