{
  "contractName": "XOR",
  "abi": [
    {
      "constant": true,
      "inputs": [
        {
          "name": "a",
          "type": "uint256"
        },
        {
          "name": "b",
          "type": "uint256"
        }
      ],
      "name": "xor",
      "outputs": [
        {
          "name": "",
          "type": "uint256"
        }
      ],
      "payable": false,
      "stateMutability": "pure",
      "type": "function"
    }
  ],
  "bytecode": "0x6060604052341561000f57600080fd5b60fb8061001d6000396000f300606060405260043610603f576000357c0100000000000000000000000000000000000000000000000000000000900463ffffffff1680639ed41ba1146044575b600080fd5b3415604e57600080fd5b606b60048080359060200190919080359060200190919050506081565b6040518082815260200191505060405180910390f35b600081604051808281526020019150506040518091039020600019168360405180828152602001915050604051809103902060001916141560c4576000905060c9565b600190505b929150505600a165627a7a7230582072e1b100ef60fe46749509c9e8ddceba840a4af04c2d5c0ef1134b683349e9950029",
  "source": "pragma solidity 0.4.19;\n\n\ncontract XOR {\n    function xor(uint a, uint b) public pure returns (uint) {\n        if (keccak256(a) == keccak256(b)) return 0;\n        else return 1;\n    }\n}\n",
  "sourcePath": "/Users/tzhang/Workspace/SP2018/bab/lab02/sp18-lab02/Intro to Solidity/contracts/xor.sol",
  "compiler": {
    "name": "solc",
    "version": "0.4.19+commit.c4cbbb05.Emscripten.clang"
  },
  "schemaVersion": "1.0.1",
  "updatedAt": "2018-02-22T00:52:50.840Z"
}